:020000040800F2
:10000000300800203502000869250008FB1F0008A1
:10001000652500088F1C00087339000800000000E7
:100020000000000000000000000000008127000820
:10003000931C000800000000F12500086D2800084E
:100040004F0200084F0200084F0200084F0200084C
:100050004F0200084F0200084F020008951C0008DC
:100060004F0200084F0200084F0200084F0200082C
:100070004F0200084F0200084F0200084F0200081C
:100080004F0200084F0200084F0200084F0200080C
:100090004F0200084F0200084F0200084F020008FC
:1000A0004F0200084F0200084F0200084F020008EC
:1000B000352C00084F020008552E00084F0200089A
:1000C0004F0200084F0200084F0200084F020008CC
:1000D0004F020008AD350008353600084F02000811
:1000E0004F0200084F0200084F02000800F002F81B
:1000F00000F090F80AA090E8000C82448344AAF132
:100100000107DA4501D100F085F8AFF2090EBAE82F
:100110000F0013F0010F18BFFB1A43F0010318473B
:100120002499000044990000103A24BF78C878C18F
:10013000FAD8520724BF30C830C144BF04680C60ED
:10014000704700000023002400250026103A28BF35
:1001500078C1FBD8520728BF30C148BF0B60704739
:100160006E2900F09383702900F07381662908F0EE
:10017000C084652908F0BD84672908F0BA84612924
:10018000AFF3008003681B0A28BF41F08001692992
:1001900000F0E480642900F0E180752900F0DE8041
:1001A0006F2900F07C84782900F03F81E92900F074
:1001B0001784E42900F01484F52900F01184EF2954
:1001C00000F07984F82900F03E810368DB0928BF3C
:1001D00041F08001632900F0FD86732900F0028759
:1001E000E32900F00D87F32900F012870020704703
:1001F0001FB500F08FFF04000020002107F01EFB58
:10020000401C60600020002107F002FBE0601FBD81
:1002100010B510BD00F050FF1146FFF7E9FF05F0E3
:100220002DFF01F02DF803B4FFF7F2FF03BC03F03C
:100230008EFD00000948804709480047FEE7FEE7B9
:10024000FEE7FEE7FEE7FEE7FEE7FEE7FEE7FEE786
:1002500004480549054A064B70470000ED28000890
:10026000ED0000083002002030080020300400209B
:1002700030040020704710B54C1084EA530404D5B4
:100280004042C1F1000138BF491E1B4204D5524211
:10029000C3F1000338BF5B1E00F0E2F914F0804F99
:1002A00004D04042C1F1000138BF491E14F0004F94
:1002B00004D05242C3F1000338BF5B1E10BD0000E2
:1002C0007CB51D4616460C00009001D02044401E0F
:1002D000074B7B442A4669460190304600F0EFFA0E
:1002E00005461CB10020694600F0FCFA28467CBD9A
:1002F000190600000FB4044910B503AA029800F0D3
:10030000FFFA10BC5DF814FB2800002070B504460D
:1003100085690068C10601D5302600E02026C007A7
:1003200007D070BDD4E9012130469047206A401CB7
:1003300020626D1EF6D570BD70B5044685690078E3
:10034000C00707D170BDD4E9012120209047206A61
:10035000401C20626D1EF6D570BD00002DE9F041F5
:100360000646002410687529314616A510D000F005
:10037000F9F9002802DA404213A507E031688A073C
:1003800001D512A502E0490704D511A5012401E019
:1003900000F0F1F900210A2206F1240709E0B0FB80
:1003A000F2FCB0FBF2F302FB1C003030785418462C
:1003B000491C0028F3D123462A463046BDE8F041C7
:1003C00000F00BBA000000002D0000002B00000020
:1003D00020000000F0B40D460188090502D5214C2B
:1003E0007C4402E01F4C7C440E34002100F12406C2
:1003F00008E002F00F071209E75D42EA03721B09E9
:100400007754491C52EA0307F3D1027800231207FC
:1004100004D5702D06D009B1022311342246F0BC58
:1004200000F0DBB901231034F8E770B504460D463F
:100430002146106800F09FF9024629462046BDE893
:1004400070400023C6E7D21D22F00703D3E9002342
:10045000C0E70368126843F0200303600823C36108
:100460000023B7E74A9400002DE9F05F894604466F
:100470004FF0000ADFF874B1FB44C0F820A020461A
:10048000E1688847002874D0252806D0D4E90121E6
:100490009047206A401C2062F1E700265F46204614
:1004A000E16888472028054607DB312D05D27819F9
:1004B00010F8200C08B10643F1E7B00701D526F08B
:1004C0000406C4F81CA00027C4F818A02A2D09D0DF
:1004D000284603F035FC38B304EB8708303DC8F8F4
:1004E000185019E059F8041B204604EB870291616B
:1004F000E1688847012F054618D1E069002820DA15
:1005000026F020061DE0D8F8180000EB800005EB6F
:1005100040003038C8F818002046E1688847054692
:1005200003F00EFC0028EED1012F0AD02E2D08D1A9
:100530002046E16888477F1C0546022F46F02006CA
:10054000C4DBA069002803DA404246F00106A0613E
:10055000F00701D026F010066C2D0BD0682D09D0C5
:100560004C2D39D06A2D35D0742D35D07A2D33D01D
:1005700016E038E0E1682F4620468847B842054635
:1005800009D16C2F26D04FF48060E16806432046E5
:100590008847054604E06C2F1AD04FF4807006435C
:1005A0000DB3A5F14100192802D8203546F40066A4
:1005B0004A462946204626604E46FFF7D1FD80B1C7
:1005C00001280BD0F61D26F0070000F1080956E7B8
:1005D0004020E4E78020D8E70020D6E706F10409B0
:1005E0004DE7284652E7206ABDE8F09FDA93000005
:1005F00040EA010310B59B070FD1042A0DD310C8A0
:1006000008C9121F9C42F8D020BA19BA884201D9F1
:10061000012010BD4FF0FF3010BD1AB1D30703D039
:10062000521C07E0002010BD10F8013B11F8014BEF
:100630001B1B07D110F8013B11F8014B1B1B01D10B
:10064000921EF1D1184610BD02F0FF0343EA0322C7
:1006500042EA024200F03CBA704770477047704768
:1006600053EA020C00F069802DE9F04B4FF00006D0
:10067000002B1FBFB3FA83F503FA05F424FA05F63D
:100680005E4012BF1643B2FA82F502FA05F4C5F1D4
:1006900020051EBF22FA05FC44EA0C04203556EA68
:1006A000044C4FEA144418BF641C4FF000084FF08C
:1006B0000009904271EB030C39D3002919BFB1FA3C
:1006C00081F701FA07F6B0FA80F700FA07F6C7F1EA
:1006D00020071EBF20FA07FC46EA0C062037B6FBAF
:1006E000F4FCA7EB0507103F07F01F0BCBF120062A
:1006F0000CFA0BFB2CFA06F644BFB3460026202F5B
:10070000A4BF5E464FF0000B5BEA060C08BF4FF03B
:10071000010B19EB0B09ABFB027C48EB0608C01B75
:1007200006FB02CC0BFB03CC71EB0C01C1E70B46C3
:10073000024641464846BDE8F08B13B54FF0000035
:100740004FF00001AFF30080BDE81C40704710B5CA
:1007500000F0DEF9006810BD10B5044600F0D8F9CD
:10076000046010BD09684A0501D540B27047C9054B
:10077000FCD500B2704709684A0501D5C0B2704780
:10078000C905FCD580B2704770B50C460546012AF4
:1007900005D02878800600D5EA69002302E001230D
:1007A00005E05B1C934202D2E05C0028F9D1A86905
:1007B000E618C01AA861286A184428622846FFF77C
:1007C000A5FD04E0D5E9012114F8010B9047B442DE
:1007D000F8D32846FFF7B0FD70BD2DE9F0470D4670
:1007E00099469246044600F124080168880604D51B
:1007F000E06921F01001216000E00120A84201DD44
:10080000471B00E00027A1697A1902EB0900081ACA
:10081000A0612078C00602D42046FFF777FD0026AD
:1008200008E0D4E901211AF806009047206A401C2C
:10083000761C20624E45F4DB2078C0060AD520469F
:10084000FFF764FD06E0D4E9012130209047206ADB
:10085000401C2062381EA7F10107F4DC07E0D4E950
:10086000012118F805009047206A401C2062281ECC
:10087000A5F10105F3DC2046FFF75EFD20780006B8
:1008800002D50220BDE8F0870120FBE7116802686D
:10089000006A530501D508700AE0D30501D5088028
:1008A00006E0130603D5C217C1E9000200E00860A4
:1008B0000120704701694A1C02610878704700B541
:1008C0008FB0CDE901310021059105497944CDE989
:1008D000031011466846FFF7C7FD0FB000BD0000CA
:1008E000E5FFFFFF0A6802F8010B0A607047D1E9D3
:1008F00000239A4202D2531C0B6010707047000014
:10090000074B70B50D467B44FFF7D9FF04462846D8
:1009100000F082FB10B14FF0FF3070BD204670BD7B
:10092000AB5000002DE9FF5F15468A460446DFF80C
:10093000AC80F8440027D8E900103E46CDE900100D
:1009400010E03AF816106A4602A800F069FB411C54
:1009500007D02178890603D5E269391891420DD86C
:100960000744761C2078800602D5E069B84205DD90
:10097000AE42E6DB3AF816000028E2D1A069C01BBF
:10098000A0612046FFF7C2FCD8E90010CDE90010B5
:10099000002017E03AF818106A4602A800F040FB61
:1009A000B0F1FF3F81460BD000250DF1080B05E0AB
:1009B000D4E901211BF8050090476D1C4D45F7D384
:1009C00008F10100B0428046E4DB206A384420622E
:1009D0002046FFF7B1FCBDE8FF9F0000828F0000BA
:1009E0002DE9F0418046D21D22F007020025D2E910
:1009F0000002F52915A614D0011E72F1000106DAD5
:100A00000023D0EB030063EB020211A608E0D8F844
:100A100000108B0701D50FA602E0490701D50EA6ED
:100A200001251146002408F1240704E000F074F8C1
:100A300030323A55641C50EA0102F7D12B46324657
:100A400021464046BDE8F041FFF7C7BE0000000068
:100A50002D0000002B0000002000000030B4002119
:100A600000F1240408E002F00705D208303542EA1C
:100A70004372DB086554491C52EA0305F3D104684C
:100A8000002310A2250707D5A40600D421B1C4690C
:100A900001230DA2641EC46130BCFFF79EBE10B5D9
:100AA000044621461068FFF766FE02462046BDE870
:100AB00010400023D2E7D21D22F00701D1E9002324
:100AC000CCE7000000000000300000004FF0000202
:100AD0000429C0F0128010F0030C00F0C382CCF1A6
:100AE000040CBCF1020F18BF00F8012BA8BF20F8BE
:100AF000022BA1EB0C0100F0B5BA5FEAC17C24BF68
:100B000000F8012B00F8012B48BF00F8012B7047BB
:100B100000487047D001002030B5B0F10A024FEA1A
:100B2000900E71F100034EEA817EB0EB0E0061EB96
:100B300091014FEA101E4EEA017E10EB0E0041EBD0
:100B400011114FEA102E4EEA016E10EB0E0041EB30
:100B500011214FEA104E4EEA014E10EB0E0041EB10
:100B60001141401841F100014FEAD00040EA4170C4
:100B70004FEAD10110EB80054FEA810444EA9074FA
:100B800044EB01046D1944EB0404521BA3414FF0E4
:100B9000000348BF0A3200D530BD401C41F10001BE
:100BA00030BD70472DE9FF4F0C461E464FF0FF3712
:100BB0008BB0D2E90001DDF860800A908A46C1F36B
:100BC0000A5505B93D46002108464FF00000BAF12C
:100BD000000F00F4400005DA00EB80004FF4400104
:100BE00001EA50004FEA9059B9F1010F00DDB94612
:100BF0000A9850EA4A000ED044F61050A5F2FF358C
:100C000045432F14B8F1000F1ED07542291E1EDD7A
:100C1000C9F100021CE0B8F1010F4FF0000001D053
:100C2000302103E0F24305E02154401CB042FBDBDD
:100C300030460022002121540B99C1F80880C1E9F7
:100C400000200FB0BDE8F08FBD1B6D1CDEE74A46EB
:100C500000DA694206A800F0A1FA06AB93E80700A3
:100C600003AB83E8070050460A9900F053FB8DE878
:100C70000700A0F500501F3800900398002D0ADDF2
:100C800042F21F014A460844002303A90390684624
:100C900000F0BCFD09E0A0F500504A461F380023D3
:100CA00003A90390684600F0C6FD8DE80700000424
:100CB000000C03D04FF0FF30410800E01046B8F1BF
:100CC000000F03D00022009215461EE0751E05D4C9
:100CD000FFF722FF303262556D1EF9D5B34601226F
:100CE000084302D000227F1C04E02078302801D184
:100CF00000227F1E002A099784D01DE0112D07DAFB
:100D0000FFF70AFF303262556D1C50EA0102F5D13F
:100D1000084302D00098C8B10EE00021681E05E02B
:100D2000235C625C63542254401E491C8142F7DB01
:100D3000AB46A81B401E0990002004F80B000B983E
:100D4000099AC0F80880C0E9002B7AE711264FF015
:100D5000000857E72DE9F04F88460446D21D22F0DF
:100D6000070191B0D1E90001CDE90A0102F06CFF61
:100D700002460B98C00F01D02D2007E020688107A4
:100D800001D52B2002E0202101EAC000032A0990AE
:100D900001D0072A05DB03464146204600F0BEF994
:100DA0000BE12078800601D5E06900E00620B8F16B
:100DB000650F814606D0B8F1660F18D0B8F1670FFD
:100DC00070D131E00020B9F1110F009001DB112347
:100DD00001E009F101030AAA01A90CA8FFF7E2FE4C
:100DE000DDE90C70002609F10105834647E001208A
:100DF0004B4600904FF000470AAA01A90CA8FFF744
:100E0000D1FEDDE90DB00C995D46002610B909F15F
:100E100001000D18B9EB050003D4C0F1FF3609F14C
:100E20000105A5EB09002BE0B9F1010F01DA4FF044
:100E300001090020B9F1110F0090484601DD11238E
:100E400000E003460AAA01A90CA8FFF7ABFEDDE902
:100E50000C704D4600268346207800070AD4AB4527
:100E600000DA5D4601A8012D04DD411911F8011CCD
:100E7000302907D04F4502DA17F1040F04DA0120B8
:100E800082460FE06D1EEEE7002F02DCED1B3E44B4
:100E900003E0781CA84200DD7D1CB81B00F1010AAC
:100EA0004FF000472078000703D4AA4501DB4FF03C
:100EB000FF3A0021B7F1004F0DF143088DF84310C0
:100EC00024D002202B23002F01DA7F422D230A2178
:100ED000021EA0F1010000DC5FB197FBF1FC97FB63
:100EE000F1F201FB1C7C17460CF1300C08F801CD27
:100EF000EEE7A8F1010003702188090501D545211D
:100F000000E06521A0F1010800F8011C09980FA973
:100F1000A1EB0807FF1D00B10120411901EBEA70A8
:100F2000A1693844081A401EA0612078C00602D486
:100F30002046FFF7EBF9099828B1D4E90121904741
:100F4000206A401C20622078C00622D52046FFF788
:100F5000DDF91EE0002E04DBB34502DD01A8805D53
:100F600000E03020D4E901219047206A401C206233
:100F7000761CAAF101005FEA000A0AD100F0CAF863
:100F8000C0680168405CD4E901219047206A401C98
:100F90002062281EA5F10105DCDC07E0D4E901216F
:100FA00018F8010B9047206A401C2062381EA7F1F8
:100FB0000107F3DC2046FFF7BFF9032011B041E63B
:100FC00010B5436913B1AFF3008001E0FFF7DCFB1C
:100FD000012010BD127800F124010A7000224A702D
:100FE0000122EDE711684FF0FF32E9E710B54369E0
:100FF00013B1AFF3008001E0FFF794FC012010BDB6
:10100000128800F1240182840022C2840122EDE7CB
:1010100011684FF0FF32E9E7007B00F08000704775
:1010200070B516460C46054600F06CF8036893F858
:101030000101012806D0FF2C0FD8185D68B10120EE
:101040002C7070BDD3F807013246214603F2071316
:1010500003442846BDE8704018474FF0FF3070BD8C
:101060004FF0000200B5134694469646203922BF41
:10107000A0E80C50A0E80C50B1F12001BFF4F7AF8C
:10108000090728BFA0E80C5048BF0CC05DF804EB6E
:10109000890028BF40F8042B08BF704748BF20F8DC
:1010A000022B11F0804F18BF00F8012B7047000091
:1010B00000487047D00100207546FFF7F9FFAE46A3
:1010C00005006946534620F00700854618B020B554
:1010D000FFF7BEF8BDE820404FF000064FF00007D4
:1010E0004FF000084FF0000B21F00701AC46ACE8D0
:1010F000C009ACE8C009ACE8C009ACE8C0098D463D
:101100007047000010B500F005F8001D10BD00BFCD
:101110002D67000000487047F00100202DE9F041E4
:101120001F46044603260168072A01F4006004DB19
:1011300008B116A505E016A503E008B115A500E065
:1011400015A521F010002060A069C01EA0610FB19C
:10115000401EA0612046FFF7D9F84FB1D4E9012124
:1011600038469047206A401C2062C01C206206E07E
:10117000206AFAE7D4E9012115F8010B9047761EA1
:10118000F8D22046FFF7D8F8BDE8F0814E414E0076
:101190006E616E00494E4600696E66002DE9F047AB
:1011A000814616468AB0354878440DC88DE80D0052
:1011B00032487844801C03AC0DC884E80D0041F629
:1011C0009B300844372190FBF1F290FBF1F5A5F13B
:1011D000800501FB12041B3C02D56442012000E0A3
:1011E0000020DFF898A080460027FA44AAF1BE0A42
:1011F0000EE0E0070AD03246684607EB47010123BC
:101200000AEB810100F017FB8DE8070064107F1CDA
:10121000002CEED1194F7F44AE3F19E0E80715D0FE
:1012200007EB04100DF1180A90E80E008AE80E0092
:10123000C068F04201D1981908903246012306A9EE
:1012400003A800F0F8FA03AB83E807006D10641CF4
:10125000002DE3D14FF0010332466946B8F1000F8B
:1012600003A802D000F0D2FA01E000F0E4FAC9E9E4
:101270000001C9F808200AB0BDE8F08730880000F6
:1012800010B50446AFF300802046BDE81040FEF7DD
:10129000CABF00004FF0013C50F8042B51F8043B4A
:1012A0009A4221D1A2EB0C03934313EACC1317D13A
:1012B00050F8042B51F8043B9A4215D1A2EB0C03D1
:1012C000934313EACC130BD150F8042B51F8043B91
:1012D0009A4209D1A2EB0C03934313EACC13DBD05F
:1012E0004FF00000704700BFD01A01BAB1FA81F187
:1012F00001F0180122FA01F0CB40C1F12001DBB26C
:10130000C0B2C01A2CFA01F3D11A914311EAC311E9
:10131000E6D170475FEA400C08BF91F0000F4FEA3A
:101320008C234FEAC12243EA51514FEA1C5018BFA7
:1013300000F5F0404FEA300018BF41F000415FEA8D
:101340006C5C00F02980BCF1FF3F08BF40F080409A
:101350007047130C06BF12044FF0100C4FF0000C36
:10136000130E04BF12020CF1080C130F04BF12017C
:101370000CF1040C930F04BF92000CF1020CD30F7C
:1013800004BF52000CF1010C11464FF00002A0F115
:101390001F00A0EB0C00704711F0004F08BF704712
:1013A00031F000413FF4D5AF0B0C06BF09044FF0FC
:1013B000100C4FF0000C0B0E04BF09020CF1080CCE
:1013C0000B0F04BF09010CF1040C8B0F04BF890043
:1013D0000CF1020CCB0F04BF49000CF1010CCCF155
:1013E0002003A0EB0C0022FA03F302FA0CF241EA0C
:1013F000030100F10100704720F07F4C80EA0300F8
:1014000023F07F47ACEB070303F57C5300F000406B
:1014100003F1FF032DE980494FEA154B09B44FEA68
:10142000144325EA0B4E24EA03480FF2042606EB88
:10143000132749083E785FEA320203FB0667C7F5C7
:10144000000707FB06F64FEA54374FEAD64606F187
:10145000020607FB066CCCF1005C4FEA1C472CEA45
:10146000074C07FB06F40CFB06F504EB15464FEAA8
:10147000961634BF00204FF000404FEAD13706FBEC
:1014800007FC4FEA1C4C0CFB0BF7D21B03FB0CF7C1
:1014900061EB07010CFB0EF7B0EB074072EB174254
:1014A0000CFB08F734BFA2EB0742B2EB074261EB3B
:1014B00017414FEA0C444FEA910706FB07FC4FEA3D
:1014C0001C4C0CFB0BF7B0EBC74072EB573203FB25
:1014D0000CF734BFA2EBC742B2EBC74261EB573106
:1014E0000CFB0EF7B0EBC70072EB57720CFB08F762
:1014F00034BFA2EBC702B2EBC70261EB5771039F87
:101500004FEA816141EA921104EBCC044FEAD137F2
:101510004FEA826206FB07FC42EA90124FEA8060C3
:101520004FEA1C4C0CFB0BF7D21B03FB0CF761EBD7
:1015300007010CFB0EF7B0EB074072EB17420CFBF8
:1015400008F734BFA2EB0742B2EB074261EB174149
:101550004FEA8C554FEA910704EB9C2406FB07FCED
:101560004FEA1C4C0CFB0BF7B0EBC74072EB573249
:1015700003FB0CF734BFA2EBC742B2EBC74261EBEF
:1015800057310CFB0EF7B0EBC70072EB57720CFB38
:1015900008F734BFA2EBC702B2EBC70261EB577189
:1015A00015EB4C254FEA816141EA92114FEA8262C4
:1015B0004FEAD13742EA901206FB07FC44F10004DF
:1015C0004FEA80604FEA1C4C0CFB0BF7D21B03FB6D
:1015D0000CF761EB07010CFB0EF7B0EB074072EB69
:1015E00017420CFB08F734BFA2EB0742B2EB0742ED
:1015F00061EB174115EB1C154FEA813141EA92412D
:101600004FEA823242EA90424FEA80304FEA0C764B
:1016100044F1000448EA03434EEA0B484FF0000E41
:10162000B2EB080C71EB030724BF624639464EEB60
:101630000E0E4FF0000B0018524149414BEB0B0BC3
:10164000B2EB080C71EB03077BF1000B24BF624681
:1016500039464EEB0E0E4FF0000B00185241494137
:101660004BEB0B0BB2EB080C71EB03077BF1000BA0
:1016700024BF624639464EEB0E0E51EA020718BFF0
:1016800046F0010616EB0E7655F1000254F100010A
:1016900003D5BDE88901BDE80088BDE88901BDE842
:1016A0000048B619524141EB0101A3F10103704713
:1016B00080807F7E7D7C7B7A79787776767574738F
:1016C000727171706F6E6E6D6C6C6B6A6A6968684E
:1016D000676666656464636362616160605F5F5EE4
:1016E0005E5D5D5C5C5B5B5A5A595958585757565A
:1016F00056555555545453535252525151505050BF
:101700004F4F4F4E4E4D4D4D4C4C4C4B4B4B4A4A10
:101710004A49494948484847474747464646454554
:10172000454444444443434343424242424141418D
:10173000002B9C4630D477002BD01CB54FEA3707DE
:1017400003B44FF010004FF01001BAF1000F06D0B3
:10175000BCF1000FDCBF40F0080040F008014FF082
:1017600000000FBCBDE810400BF1010BBBF1010FF5
:1017700008BF5FEA170722BF12F1010211F1010150
:101780004FF0004143F1000300F0004043EA000045
:101790007047F9D35708D0E746EA064613F1400FE1
:1017A0004FEA16461FDD13F1200FDFBF16430A462E
:1017B000002120335B42BED0C3F1200746EA064633
:1017C00002FA07F74FEA164646EA0706C3F1200772
:1017D00022FA03F201FA07F721FA03F14FF00003AE
:1017E00042EA0702A7E746EA020646EA06464FEA49
:1017F000164646EA0106BCBF46EA0646360C4FF0DE
:1018000000034FF000024FF0000194E72DE9804CF7
:101810009A46934670B491E8380007C831EA400C04
:1018200048BF34EA430C03D5FFF7E6FDFFF780FF1E
:10183000F0BCBDE8008C2DE9804C9A46934670B40C
:1018400091E8380007C810F0804F08BF13F0804FB0
:1018500003D100F005F8FFF76BFFF0BCBDE8008C8A
:1018600020F07F4780EA030023F07F4C07EB0C0356
:10187000A3F57C5300F00040A3F1FE0392F0000FAB
:1018800000F0B38095F0000F00F077802DE901495A
:101890004FEA11404FEA144621EA004800FB06FCDB
:1018A00024EA064708FB06F607FB08F800FB07F7E3
:1018B00018EB06484CEB164C4FEA124B18EB074856
:1018C0004FEA15464CEB174022EA0B4E0BFB06FC89
:1018D00025EA06470EFB06F607FB0EFE0BFB07F795
:1018E0001EEB064E4CEB164C4FF000061EEB074E5F
:1018F0004CEB174B18EB0B0840F1000018EB0E0BEC
:1019000058EB000840F100008F1A4FF000013CBF77
:10191000C943661B14BFB5EB040C00213CBFC9438F
:10192000F61B4FEA17444EEA8E0E27EA04454FEAAB
:101930001C4704FB07622CEA074C05FB07F70CFB6E
:1019400005F604FB0CFC16EB074642EB174216EBC0
:101950000C4642EB1C421BEB060658EB02024141CF
:1019600046EA9E0601D5BDE80189B619524141EB10
:101970000101A3F10103BDE801894FEA14454FEAD3
:10198000114724EA054621EA074C05FB07F406FB4C
:1019900007F70CFB06F105FB0CFC11EB074144EBD0
:1019A00017444FEA124711EB0C4144EB1C4422EA66
:1019B000074C05FB07F206FB07F70CFB06F605FBD9
:1019C0000CFC16EB074642EB174216EB0C4642EBBB
:1019D0001C456A1854F1000148BF7047B6195241BE
:1019E00041EB0101A3F10103704795F0000F37D0DF
:1019F0004FEA11424FEA144721EA024624EA074C13
:101A000002FB07F106FB07F70CFB06F402FB0CFCDC
:101A100014EB074441EB17414FEA154714EB0C4414
:101A200041EB1C4125EA074C02FB07F506FB07F7D3
:101A30000CFB06F602FB0CFC16EB074645EB1745C4
:101A400016EB0C4645EB1C42121951F1000148BF40
:101A50007047B619524141EB0101A3F101037047F0
:101A60004FEA14454FEA114724EA054621EA074C9C
:101A700005FB07F106FB07F70CFB06F24FF000062B
:101A800005FB0CFC12EB074241EB174112EB0C4239
:101A900051EB1C4148BF7047921841EB0101A3F183
:101AA0000103704721B1826842F00102826003E0C5
:101AB000826822F0010282607047000010B504467F
:101AC0001248844208D10121401500F0CFFD0021C9
:101AD000601500F0CBFD17E00D48844208D10121CC
:101AE000001500F0C3FD0021201500F0BFFD0BE044
:101AF0000848844208D10121C80300F0B7FD002145
:101B00004FF4004000F0B2FD10BD00000024014081
:101B100000280140003C0140014600208A6802F094
:101B200004020AB1012000E0002070470146C86CA1
:101B300080B270470246002013680B400BB10120B1
:101B400000E000207047014600208A6802F0080289
:101B50000AB1012000E000207047000030B50246C5
:101B60000020002350680F4C20400D790C6844EA97
:101B700005242043506090680B4C2040D1E902546A
:101B80002C434D7944EA450420439060D06A20F408
:101B900070000C7C641EE4B2234340EA0350D06220
:101BA00030BD0000FFFEF0FFFDF7F1FFF0B5044689
:101BB0000D4600200021092D11DDE068A5F10A067F
:101BC00006EB4607072606FA07F18843A5F10A0641
:101BD00006EB460603FA06F10843E0600CE02069D4
:101BE00005EB4507072606FA07F1884305EB45068E
:101BF00003FA06F108432061072A0FDA606B561ECC
:101C000006EB86071F2606FA07F18843561E06EBE9
:101C1000860605FA06F10843606322E00D2A0FDA12
:101C2000206BD61F06EB86071F2606FA07F18843AE
:101C3000D61F06EB860605FA06F10843206310E07E
:101C4000E06AA2F10D0606EB86071F2606FA07F1E9
:101C50008843A2F10D0606EB860605FA06F1084355
:101C6000E062F0BD816841F008018160704721B1F8
:101C7000826842F4A002826003E0826822F4A0023B
:101C800082607047816841F004018160704700BF45
:101C9000FEE7704770B50A2003F0A4F8022000F0B8
:101CA0005DF8002848D000214FF0804001F0FEFB95
:101CB0000121880701F0ECF807E04FF0804001F0C7
:101CC00018FAB0F5487F00DD08E002211B4800F05B
:101CD00056F918B11A4800780028EED000BF00214C
:101CE0004FF0804001F0D4F84FF0804001F001FA4D
:101CF0004FF4AA7100FB01F5284606F01DFD0446CD
:101D0000104906F0E7FB104908604FF0804001F0F1
:101D1000F0F9022803DA4FF07E500B4908600848BA
:101D20000078012805D109480749086000200449C6
:101D30000870022000F00CF870BD0000000801409F
:101D4000980000200000FA4494000020000008439E
:101D5000014908607047000014040140014600205A
:101D60000022074B1B6803EA0102054B14331B6872
:101D70000B4013B10AB1012000E0002070470000C1
:101D800000040140002123498279002A3AD00A4602
:101D9000126803689A430B461A600A1D12680368AA
:101DA0009A430B1D1A60027911440A6803681A43AA
:101DB0000A60184A0832126803689A43154B0833C0
:101DC0001A601A1D126803689A43124B0C331A608A
:101DD0004279102A0ED11A1F126803681A430D4B5C
:101DE00008331A601A1D126803681A43094B0C3332
:101DF0001A600DE00749427911440A6803681A43E2
:101E00000A6005E0027911440A6803689A430A608F
:101E100070470000000401400146002901DB0A462A
:101E200000E04A421046704730B500228B071C0F75
:101E30000F2303FA04F20B4B8C1053F82430934316
:101E4000084C8D1044F8253023468C1053F824306C
:101E50008C07240F00FA04F42343024C8D1044F83D
:101E6000253030BD080001402DE9F0410246002533
:101E70000026002000230024002791F803C00CF066
:101E80000F0591F803C00CF0100CBCF1000F03D04B
:101E900091F802C04CEA050591F800C0BCF1000FB2
:101EA00031D0146800202BE04FF0010C0CFA00F345
:101EB000B1F800C00CEA03069E4220D183004FF027
:101EC0000F0C0CFA03F7BC4305FA03FC4CEA0404BC
:101ED00091F803C0BCF1280F06D14FF0010C0CFAA9
:101EE00000FCC2F814C00AE091F803C0BCF1480F2E
:101EF00005D14FF0010C0CFA00FCC2F810C0401CD8
:101F00000828D1D31460B1F800C0BCF1FF0F34DD54
:101F1000546800202EE000F1080C4FF0010808FA88
:101F20000CF3B1F800C00CEA03069E4221D18300F5
:101F30004FF00F0C0CFA03F7BC4305FA03FC4CEA14
:101F4000040491F803C0BCF1280F05D100F1080C7E
:101F500008FA0CF8C2F8148091F803C0BCF1480FDD
:101F600007D100F1080C4FF0010808FA0CF8C2F88C
:101F70001080401C0828CED35460BDE8F081024692
:101F8000002093680B400BB1012000E00020704757
:101F9000416170470161704710B504460723012273
:101FA00021460948FFF702FE01210748FFF75FFEBF
:101FB00000BF02210448FFF7BDFD0028F9D0024808
:101FC000FFF7B4FD10BD0000002401402DE9F041F1
:101FD00007460C460025002608E03846FFF7DCFFE0
:101FE0000544052002F0F2FE701CC6B2A642F4DBE6
:101FF000B5FBF4F080B2BDE8F08100BFFEE7000061
:10200000084A01681268914202DD064909680160C8
:10201000054A01681268914202DA034909680160C1
:1020200070470000300000203400002000B5034657
:10203000002B05DB01200A4908600A49C1F8B401F8
:10204000002B06DA01200649086000200549C1F886
:10205000B4011846FFF7E0FE0349088000BD000008
:10206000B0812142008021423C04004010B5002094
:102070000E4908600E48006820F0F0000C49086026
:102080000846006840F03000086000200949C1F8A7
:10209000A40100F011F801200449086000F00CF8D8
:1020A00000200449C1F8A00110BD0000A081214218
:1020B000040C01400080214210B5022002F092FE83
:1020C00010BD000008B50121082000F0BFFA4FF450
:1020D0004070ADF8000010208DF8030003208DF84B
:1020E000020069460448FFF7BFFE4FF44071024802
:1020F000FFF750FF08BD0000000C014010B50020A4
:102100000E4908600E48006820F0F0000C49086095
:102110000846006840F03000086001200949C1F815
:10212000A401FFF7C9FF012004490860FFF7C4FFBD
:1021300000200449C1F8A00110BD0000A081214287
:10214000040C01400080214270B505460024164869
:10215000006820F0F000144908600846006840F06C
:1021600080000860002614E0002010490860FFF796
:10217000A3FF01200E49C1F8A0016006040E0B4820
:102180007C38006808B1601CC4B2FFF795FF701C72
:10219000C6B2082EE8DB15B9FFF7B0FF01E0FFF784
:1021A00065FF204670BD0000040C0140A081214263
:1021B0000080214270B504461248006820F0F0000B
:1021C000104908600846006840F0300008600020B0
:1021D0000D490860002512E0E0090B49091D08605F
:1021E0006006040E01200949C1F8A001FFF764FF51
:1021F000002005490860FFF75FFF681CC5B2082D85
:10220000EADB70BD040C0140A08121420080214224
:1022100010B50E48006820F0F0000C490860084630
:10222000006840F030000860012009490860094951
:10223000C1F8A001FFF740FF002005490860FFF743
:102240003BFF00200349C1F8A00110BD040C014070
:10225000A48121420080214210B50E48006820F080
:10226000F0000C4908600846006840F03000086043
:102270000020094908600949C1F8A401FFF71CFFC3
:102280000120054908600549C1F8A401FFF714FFC2
:1022900010BD0000040C0140A081214200802142B9
:1022A00010B500241448006820F0F00012490860BE
:1022B0000846006840F08000086001200F4908606F
:1022C000FFF7FAFE01200E49C1F8A001FFF7F4FE66
:1022D00007E0601CC4B2FA2C03DDFFF7BDFF01204C
:1022E00010BD0648803800680028F2D10349091F54
:1022F000086000BFF4E70000040C0140A481214203
:102300000080214210B5FFF7DDFE80216B2000F038
:10231000D7F8642002F05AFD00216B2000F0D0F8BD
:10232000032000F08BF8002000F080F8C82000F0B7
:10233000AAF80021382000F0C3F800216A2000F03C
:10234000BFF80021232000F0BBF88021372000F0E7
:10235000B7F8752000F013F80446682C0BD1012162
:102360006B2000F0ADF800216C2000F0A9F864208B
:1023700000F089F801E0012010BD0020FCE770B5F5
:102380000446FFF745FFD020FFF714FFFFF788FF53
:102390002046FFF70FFFFFF783FFFFF739FFD1203C
:1023A000FFF708FFFFF77CFF0020FFF7CDFE054693
:1023B000FFF752FF284670BD2DE9F04106460F4653
:1023C00014461D46FFF724FF002141EA4601C8B22A
:1023D000FFF7F0FEFFF764FF20B1FFF73DFF01209C
:1023E000BDE8F0813846FFF7E5FEFFF759FFFFF73C
:1023F0000FFF012101EB4601C8B2FFF7DBFEFFF73B
:102400004FFF0DE0012C04D10020FFF79DFE287046
:1024100003E00120FFF798FE2870601EC4B26D1C17
:10242000002CEFD1FFF718FF0020D9E710B50446C4
:10243000E006010E1C2000F043F810BD10B5044664
:10244000E006010E1B2000F03BF810BD70B50446FD
:102450000025BC2C01DB012510E0622C01DB0225EC
:102460000CE02A2C01DB032508E0142C01DB0425F9
:1024700004E00A2C01DB052500E0062529461A2088
:1024800000F01EF870BD70B50446B4F57A7F01DD2A
:102490004FF47A74042C00DA04244FF47A7090FB21
:1024A000F4F0401EC5B22946192000F009F805468F
:1024B000264604EBD671C1F34F00FFF7C7FF70BD8E
:1024C00070B505460C46FFF7A3FED020FFF772FE5D
:1024D000FFF7E6FE18B1FFF7BFFE012070BD2846EA
:1024E000FFF768FEFFF7DCFE2046FFF763FEFFF70D
:1024F000D7FE18B1FFF7B0FE0120EFE7FFF7ACFE03
:102500000020EBE72DE9F04105460E4617469846B8
:10251000FFF77EFE002141EA4501C8B2FFF74AFEFF
:10252000FFF7BEFE20B1FFF797FE0120BDE8F08166
:102530003046FFF73FFEFFF7B3FE00240CE018F82B
:102540000400FFF737FEFFF7ABFE18B1FFF784FE7C
:102550000120EBE7601CC4B2BC42F0DBFFF77CFE5D
:102560000020E3E700BFFEE77047000070B50021E0
:1025700000230F22C47804B3154C246804F4E064EB
:10258000C4F5E064210AC1F10403CA40447804FAA6
:1025900003F184781440214309010E4C0678A155BB
:1025A000047804F01F050124AC4005786D11AD00DE
:1025B00005F1E025C5F8004109E0047804F01F05A5
:1025C0000124AC40044D0678761145F8264070BDD4
:1025D0000CED00E000E400E080E100E0024901438E
:1025E000024A1160704700000000FA050CED00E09F
:1025F0007047000001460020034A506820F4404024
:1026000008435060704700000010024029B1064A9C
:10261000D2690243044BDA6104E0034AD26982437F
:10262000014BDA61704700000010024029B1064AF0
:1026300012690243044B1A6104E0034A126982439F
:10264000014B1A61704700000010024029B1064A90
:1026500092690243044B9A6104E0034A92698243FF
:10266000014B9A61704700000010024029B1064AF0
:10267000D2680243044BDA6004E0034AD268824322
:10268000014BDA60704700000010024030B50021B5
:102690000022002400232D4D6D6805F00C0121B1AE
:1026A000042905D0082923D105E0294D056022E041
:1026B000274D05601FE0254D6D6805F47012234D10
:1026C0006D6805F48034022505EB92421CB9214D5A
:1026D000554305600BE01D4D6D6805F400351DB1D7
:1026E0001C4D5543056002E0194D5543056002E05D
:1026F000174D056000BF00BF144D6D6805F0F00177
:102700000909154D6B5C0568DD4045600F4D6D682E
:1027100005F4E061090A104D6B5C4568DD40856099
:102720000A4D6D6805F46051C90A0B4D6B5C456834
:10273000DD40C560054D6D6805F44041890B074DCE
:102740006B5CC568B5FBF3F5056130BD0010024058
:1027500000127A0000093D00000000201000002057
:102760000146042906D1054A128810B20022034B03
:102770001A8001E0002000BF00BF7047240800401D
:10278000704710B500F002F810BD00000CB5002035
:10279000019000903348006840F48030314908606F
:1027A00000BF3048006800F4003000900198401CE1
:1027B0000190009818B90198B0F5A06FF1D129489F
:1027C000006800F4003010B10120009001E000200A
:1027D00000900098012843D12348006840F0100081
:1027E000214908600846006820F003000860084698
:1027F000006840F0020008601A48406819494860C3
:102800000846406848600846406840F48060486078
:102810000846406820F47C1048600846406840F450
:10282000E81048600846006840F08070086000BF0B
:102830000C48006800F000700028F9D00948406892
:1028400020F00300074948600846406840F0020055
:10285000486000BF0348406800F00C000828F9D128
:102860000CBD0000001002400020024010B501F035
:102870001BFE10BD30B51A4800686422B0FBF2F1AF
:10288000B1F1807F01D301201DE021F07F40401E87
:102890004FF0E022506150170F22002807DA13078B
:1028A0001D0E104B00F00F04241F1D5503E01307ED
:1028B0001C0E0D4B1C5400BF00204FF0E022906115
:1028C00007201061002008B100BFFEE74FF0E020B4
:1028D000006920F001004FF0E021086130BD0000E8
:1028E0001400002018ED00E000E400E010B51348EB
:1028F000006840F00100114908600846406810492E
:1029000008400E494860084600680E4908400B49D7
:1029100008600846006820F4802008600846406887
:1029200020F4FE0048604FF41F008860FFF729FF85
:102930004FF000600449086010BD00000010024024
:102940000000FFF8FFFFF6FE08ED00E0F0B50C46D2
:10295000154600220021068C4FF6FE773E40068485
:10296000028B018C4FF60C7632407E1C06EA031671
:102970002E433243104EB0420ED0104EB0420BD018
:10298000B0F1804F08D00E4EB04205D00D4EB0428F
:1029900002D00D4EB04206D14FF6FD76314044F0E4
:1029A0000106314305E04FF6F576314044F001066B
:1029B000314302830184F0BD002C0140003401400A
:1029C0000004004000080040000C0040F0B50C4638
:1029D0001546002200210026078C4FF6EF7C07EAFF
:1029E0000C070784028B018C4FF6FF7707EA041669
:1029F00040F6FF473A404FF6FF7707EA03373A437E
:102A00004FF6FF7707EA05273A43114FB8420ED039
:102A1000104FB8420BD0B0F1804F08D00E4FB842E3
:102A200005D00E4FB84202D00D4FB84206D14FF636
:102A3000DF77394046F01007394305E04FF65F77FE
:102A4000394044F01007394302830184F0BD00008F
:102A5000002C014000340140000400400008004008
:102A6000000C0040F0B50C4615460022002100265F
:102A7000078C4FF6FF6C07EA0C070784828B018CEA
:102A80004FF6FF7707EA04264FF60C773A404FF6E9
:102A9000FF7707EA03172F433A43114FB8420ED08E
:102AA000104FB8420BD0B0F1804F08D00E4FB84253
:102AB00005D00E4FB84202D00D4FB84206D14FF6A6
:102AC000FF57394046F48077394305E04FF2FF570E
:102AD000394044F48077394382830184F0BD00009B
:102AE000002C014000340140000400400008004078
:102AF000000C0040F0B50C461546002200210026CF
:102B0000078C4EF6FF7C07EA0C070784828B018C4A
:102B10004FF6FF7707EA043640F6FF473A404FF694
:102B2000FF7707EA05273A434FF6FF7707EA0337AF
:102B30003A43114FB8420ED0104FB8420BD0B0F10B
:102B4000804F08D00E4FB84205D00E4FB84202D089
:102B50000D4FB84206D14DF6FF77394046F4805705
:102B6000394305E047F6FF57394044F4805739436D
:102B700082830184F0BD0000002C0140003401403C
:102B80000004004000080040000C004030B589B04F
:102B900005460C460121C802FFF758FD012105201A
:102BA000FFF754FD4FF41060ADF8200018208DF8A9
:102BB000230003208DF8220008A91C48FFF754F9D0
:102BC000ADF81850ADF814400020ADF81A00ADF87B
:102BD000160005A9164800F097FC6020ADF8040027
:102BE0000120ADF806000020ADF80A00ADF80C0099
:102BF00001A90F4800F0FAFA00210D4800F042FB4D
:102C000001A90B4800F002FC0021094800F03CFC3F
:102C10000121074800F048F90021054800F026F995
:102C20000121034800F034F909B030BD000801402B
:102C3000002C014010B50121880700F05DFA30B189
:102C40000121880700F021F901200149087010BD19
:102C5000980000201FB501210846FFF7D7FC4FF070
:102C6000804000F031F942F20F70ADF8080040F2F8
:102C7000CF20ADF804000020ADF80A00ADF8060042
:102C800001A94FF0804000F03FFC0122114690075F
:102C900000F0A3FA01224021080600F09EFA00216C
:102CA0004FF0804000F0F4F84FF4A060FFF796FC7E
:102CB00000208DF801008DF802001C208DF8000026
:102CC00001208DF803006846FFF750FC1FBD00008F
:102CD00030B589B005460C4601210220FFF796FC6D
:102CE00001210C20FFF7B2FC18208DF80700C0204E
:102CF000ADF8040003208DF8060001A92848FFF76D
:102D0000B3F818208DF803000320ADF800008DF80B
:102D1000020069462348FFF7A7F8ADF81C50ADF84C
:102D200018400020ADF81A00ADF81E0006A91E4894
:102D300000F0EAFB6020ADF808000120ADF80A00C1
:102D40000020ADF80E000220ADF8100002A91648D0
:102D500000F04CFA02A9144800F09EFA02A91248A9
:102D600000F0FAFA02A9104800F050FB08210E48C2
:102D700000F088FA08210C4800F0E0FA08210A481F
:102D800000F03AFB0821084800F07EFB01210648CC
:102D900000F06CF80121044800F07AF809B030BD69
:102DA00000080140000C01400004004030B587B02D
:102DB00005460C4601210420FFF728FC01210820CC
:102DC000FFF744FC4020ADF8180004208DF81B00EC
:102DD00006A91E48FFF748F88020ADF81800042027
:102DE0008DF81B0006A91948FFF73EF8ADF804500E
:102DF000ADF800400020ADF80600ADF802006946CD
:102E0000134800F081FB00231A460321104800F00C
:102E10004FF903A800F0D8F90A20ADF8140003A96F
:102E20000B4800F07BF90121094800F02BF8012242
:102E30001146074800F0D1F90021054800F036FBA3
:102E40000121034800F024F807B030BD000C014018
:102E500000080040044800880348008820F0010072
:102E600001490880704700001008004021B1028825
:102E700042F08002028004E002884FF67F731A401D
:102E800002807047CA4302827047CA430282704779
:102E900021B1028842F00102028004E002884FF66C
:102EA000FE731A400280704731B1B0F8442042F4FA
:102EB0000042A0F8442005E0B0F84420C2F30E021E
:102EC000A0F844207047000010B5044668488442CA
:102ED00008D10121C014FFF7C9FB0021E014FFF75E
:102EE000C5FBC4E0B4F1804F08D101210846FFF7CB
:102EF0009DFB00210120FFF799FBB8E05D4884426B
:102F000008D101210220FFF791FB00210220FFF7E9
:102F10008DFBACE05848844208D101210420FFF722
:102F200085FB00210420FFF781FBA0E05348844289
:102F300008D101210820FFF779FB00210820FFF7C5
:102F400075FB94E04E48844208D101211020FFF720
:102F50006DFB00211020FFF769FB88E0494884429F
:102F600008D101212020FFF761FB00212020FFF77D
:102F70005DFB7CE04448844208D101214014FFF706
:102F800075FB00216014FFF771FB70E03F4884423D
:102F900009D10121C804FFF769FB00214FF400208B
:102FA000FFF764FB63E03A48844209D10121080538
:102FB000FFF75CFB00214FF48010FFF757FB56E052
:102FC0003448844209D101214805FFF74FFB002115
:102FD0004FF40010FFF74AFB49E02F48844208D124
:102FE00001214020FFF722FB00214020FFF71EFBBC
:102FF0003DE02A48844208D101218020FFF716FBDA
:1030000000218020FFF712FB31E02548844208D1DF
:1030100001218015FFF70AFB0021A015FFF706FB31
:1030200025E02048844209D101210804FFF71EFB56
:1030300000214FF48030FFF719FB18E01A48844252
:1030400009D101214804FFF711FB00214FF40030A2
:10305000FFF70CFB0BE01548844208D101218804DE
:10306000FFF704FB00214FF48020FFF7FFFA10BDAB
:10307000002C01400004004000080040000C00400B
:10308000001000400014004000340140004C01409A
:10309000005001400054014000180040001C004056
:1030A0000020004000400140004401400048014031
:1030B000F0B50C4615461E4600210022002301896A
:1030C000028B038C4FF6F877394021434FF6FC47CB
:1030D0003A4040F201173A434FF6DD773B404FF656
:1030E000FF7707EA06172F433B43018102830384DE
:1030F000F0BD0146888C704730B5024600200023A1
:103100000024158A05EA0103958905EA010413B133
:103110000CB1012000E0002030BD000070B5054674
:103120000C46244885420ED0234885420BD0B5F189
:10313000804F08D02148854205D02148854202D0E1
:103140002048854200D100E000BF208850B9238983
:10315000A28861882846FFF7F9FBE188284600F03D
:10316000A7F925E0208804280AD12389A28861884C
:103170002846FFF72BFCE188284600F0A2F917E06B
:10318000208808280AD12389A28861882846FFF769
:1031900069FCE188284600F0A1F909E02389A288AA
:1031A00061882846FFF7A6FCE188284600F09FF9D1
:1031B00070BD0000002C01400034014000040040BC
:1031C00000080040000C00400021018041800121E6
:1031D00081800021C180018170471AB183890B432E
:1031E000838102E083898B438381704770B500241B
:1031F00000220023058C4FF6FE7635400584028CB4
:103200008388048B4FF68F752C40B51E2C400D889B
:103210002C43751E2A400D892A434D882A43144D9C
:10322000A8420BD0134DA84208D0134DA84205D098
:10323000124DA84202D0124DA84213D14FF6F77595
:103240002A404D892A434FF6FB752A408D882A4330
:103250004FF6FF652B404FF6FF552B408D892B43D2
:10326000CD892B4383800483CD888586028470BDFD
:10327000002C014000340140004001400044014066
:10328000004801400A460021018B4FF6F7731940B0
:10329000114301837047000070B500240022002311
:1032A000058C4FF6EF7635400584028C8388048BBD
:1032B00048F6FF752C404FF6FF452C400D884FF621
:1032C000FF7606EA05252C434FF6DF752A400D8967
:1032D00006EA05152A434D8806EA05152A43154DC9
:1032E000A84202D0144DA8421DD14FF67F752A4046
:1032F0004D894FF6FF7606EA05152A434FF6BF754E
:103300002A408D8806EA05152A434FF6FF352B40E3
:103310004FF2FF752B408D8906EA85052B43CD8939
:1033200006EA85052B4383800483CD8805870284C4
:1033300070BD0000002C0140003401400A4600210D
:10334000018B4FF2FF7319404FF6FF7303EA02231C
:10335000194301837047000070B500240022002348
:10336000058C4FF6FF6635400584028C8388848B7C
:103370004FF68F752C404FF6FC752C400D882C4372
:103380004FF6FF552A400D894FF6FF7606EA0525D0
:103390002A434D8806EA05252A43154DA84202D046
:1033A000144DA8421DD14FF2FF752A404D894FF6AA
:1033B000FF7606EA05252A434FF6FF352A408D8819
:1033C00006EA05252A434EF6FF752B404DF6FF759C
:1033D0002B408D8906EA05152B43CD8906EA051594
:1033E0002B4383808483CD888587028470BD000051
:1033F000002C0140003401400A460021818B4FF629
:10340000F7731940114381837047000070B50022A3
:1034100000230024058C4EF6FF7635400584038C8E
:103420008488828B48F6FF752A404FF6FF452A4074
:103430000D884FF6FF7606EA05252A434DF6FF75FF
:103440002B400D8906EA05352B434D8806EA0535E4
:103450002B430B4DA84202D00A4DA84208D14BF68F
:10346000FF752C408D894FF6FF7606EA85152C43B3
:1034700084808283CD88A0F84050038470BD000012
:10348000002C0140003401400A460021818B4FF29C
:10349000FF7319404FF6FF7303EA02231943818338
:1034A000704781867047A0F840107047818470474C
:1034B000028B4FF6F3731A400283028B0A43028396
:1034C0007047028B4FF2FF331A400283028B4FF694
:1034D000FF7303EA01231A4302837047828B4FF67E
:1034E000F3731A408283828B0A4382837047828BF4
:1034F0004FF2FF331A408283828B4FF6FF7303EA49
:1035000001231A4382837047002202881D4B984290
:103510000ED01D4B98420BD0B0F1804F08D01B4B02
:10352000984205D01A4B984202D01A4B984204D1C7
:103530004FF68F731A404B881A43174B984207D0A7
:10354000164B984204D04FF6FF431A40CB881A43DB
:1035500002808B8883850B8803850A4B98420BD0A9
:10356000094B984208D00E4B984205D00D4B98421B
:1035700002D00D4B984201D10B7A0386012383823E
:1035800070470000002C014000340140000400405E
:1035900000080040000C00400010004000140040F3
:1035A00000400140004401400048014010B540F295
:1035B00025511D4800F019F910B31B4800F0D0F94F
:1035C000C4B21A48008800F40040C8B917480088FF
:1035D00000F4804060B10A2C03D000201349088019
:1035E00020E01248008840F400401049088019E0AB
:1035F0000D2C06D10D48008840F480400B4908800E
:1036000010E00A480088C0F30D0009490C5407482F
:103610000088401C0549088008460088C72801DD4D
:103620000020088010BD0000003801402C00002060
:10363000F800002010B540F225512D4800F0D5F8D3
:10364000012854D140F22551294800F057F8284864
:1036500000F086F9C4B2274804701CB9002026493E
:10366000087044E0012C03D10120234908703EE09A
:10367000022C03D102202049087038E0032C03D12A
:1036800003201D49087032E0042C03D104201A499C
:1036900008702CE0052C03D105201749087026E09E
:1036A000062C03D106201449087020E0072C03D112
:1036B0000720114908701AE00A2C03D108200E498E
:1036C000087014E00B2C03D109200B4908700EE0A0
:1036D0000C2C03D10A200849087008E00D2C03D1F6
:1036E0000B200549087002E064200349087010BDF2
:1036F000004400402F0000202E00002010B50022C2
:10370000002340F66A14A14200D100BF0A1201242E
:103710009440A3B2DC43048010BD21B1828942F4FD
:103720000052828104E082894DF6FF731A40828143
:103730007047000010B504462048844209D1012199
:103740008803FEF793FF00214FF48040FEF78EFFC1
:1037500032E01B48844209D101214804FEF766FF8C
:1037600000214FF40030FEF761FF25E01548844248
:1037700009D101218804FEF759FF00214FF4802070
:10378000FEF754FF18E01048844209D10121C80413
:10379000FEF74CFF00214FF40020FEF747FF0BE03F
:1037A0000A48844208D101210805FEF73FFF0021A5
:1037B0004FF48010FEF73AFF10BD000000380140C2
:1037C0000044004000480040004C004000500040D1
:1037D00002460020B1F5007F00D100BF13880B40E6
:1037E0000BB1012000E00020704770B502460024B4
:1037F00000230025002040F66A16B14200D100BF28
:10380000C1F3421501F01F03012606FA03F3012D4F
:1038100002D19689334006E0022D02D1168A334048
:1038200001E0968A33400C12012606FA04F4168849
:10383000344013B10CB1012000E0002070BDF0B5A0
:103840000346002400260025002040F66A17B942EE
:1038500000D100BF1846C1F3421401F01F06012732
:1038600007FA06F5012C01D10C3004E0022C01D13D
:10387000103000E014301AB107682F43076002E0EF
:103880000768AF430760F0BD2DE9F04786B00546F5
:103890000E460024A24600BFA1460027B08900B111
:1038A00000BF2F462C8A4CF6FF700440F08804437A
:1038B0002C82AC894EF6F3100440B088318908435D
:1038C000718908430443AC81AC8A4FF6FF40044041
:1038D000B0890443AC8201A8FEF7D8FE1F48874296
:1038E00002D1DDF810A001E0DDF80CA0A88900F4F9
:1038F000004040B10AEBCA0000EB0A1031684900F1
:10390000B0FBF1F807E00AEBCA0000EB0A103168DF
:103910008900B0FBF1F86420B8FBF0F00401200945
:10392000642101FB1089A88900F4004040B13220D5
:1039300000EBC900B0FBF1F000F00700044308E021
:10394000322000EB09106421B0FBF1F000F00F0011
:1039500004432C8106B0BDE8F08700000038014028
:1039600001468888C0F308007047C1F308028280CE
:10397000704700BFFEE700002DE9F04F87B0824698
:103980008B46ABEB0A0004F0D7FE1E4908600846E0
:10399000006804F005FD064600221B4B04F026FAE1
:1039A00004460D46194801681648006805F02CF8D1
:1039B0000746174904F020FF064604F0F1FC2246B2
:1039C0002B46CDE9000103F081FFCDE9020111484A
:1039D000006804F0E5FC8046DDE9022303F076FF91
:1039E000CDE9040103F040FF0A490860054800687A
:1039F000064908600748006804F062FE07B0BDE8A9
:103A0000F08F0000EC0000200000E03FF4000020F8
:103A100000002041F00000202DE9FE4F04460294F2
:103A20003048006804F0B7F907464FF066322E4B75
:103A300004F0DCF9054604F051F92A4908600298BF
:103A400004F0A9F94FF03332284BCDE9000104F01E
:103A5000CDF905460E462348006804F09CF9074658
:103A60002A46334603F032FF824604F037F91D49F7
:103A700008601F480068096808441D490860084636
:103A8000006842F21071884201DD084608E01848DB
:103A900000681849884201DA084601E014480068C5
:103AA000134908600846006804F046FE8046124844
:103AB0000168404604F0A0FE06460A48006804F08B
:103AC0003BFE80460D480168404604F095FE0746DF
:103AD000314604F091FC054604F0F2FD814648466B
:103AE000BDE8FE8FE80000206666E63F3333D33F33
:103AF000E4000020F0D8FFFFD4000020D000002018
:103B00002DE9FC5F06460F4614463946304604F060
:103B100070FF01901C480199006804F06DFC1A497F
:103B200008601A491848006804F032FF02D21748AA
:103B30001549086016491448006804F029FE02D2AD
:103B400013481149086021461248006804F054FEE9
:103B500082460D4801681048006804F04DFE834617
:103B60000E480199006804F047FE5946009004F0A1
:103B700043FC8146514604F03FFC804604F0A0FD22
:103B800005462846BDE8FC9FE00000200000F0410B
:103B90000000F0C1CC000020C8000020C4000020BC
:103BA0001FB501210520FEF751FD10208DF80F00F3
:103BB0000120ADF80C0003208DF80E0003A9194870
:103BC000FEF752F928208DF80F000220ADF80C0006
:103BD00003208DF80E0003A91248FEF745F90121D4
:103BE0000020FEF721F90220019001208DF80A0043
:103BF00000208DF8080008208DF8090001A8FEF7C4
:103C0000C1F807208DF8000001208DF80300022084
:103C10008DF8010001208DF802006846FEF7A6FC31
:103C20001FBD00000008014010B501210548FEF746
:103C3000B1F9142001F0D6F801210248FEF7A8F9E5
:103C400010BD000000080140490050EAC12018BF23
:103C500004204A0D18BF40F0010040F2FF72B2EBA1
:103C6000515F08BF40F00200012808BF05207047DF
:103C70002DE9F0414F1E00EBC7010446D1E90001D8
:103C800015461E4637F006020DD02A46334604F08C
:103C9000ADF87F1E04EBC703D3E9002303F016FE43
:103CA00037F00602F1D1022F25D0042F13D0062FB2
:103CB00018BFBDE8F0812A46334604F097F8D4E9EE
:103CC0000A2303F003FE2A46334604F08FF8D4E9B2
:103CD000082303F0FBFD2A46334604F087F8D4E9B5
:103CE000062303F0F3FD2A46334604F07FF8D4E9B7
:103CF000042303F0EBFD2A46334604F077F8D4E9B9
:103D0000022303F0E3FD2A46334604F06FF8D4E9BA
:103D10000023BDE8F04103F0D9BD012204F01DBF2E
:103D200003F0D4BD002213461046114603F07EBEB8
:103D3000024A0020110704F010BF000001FDFFFF40
:103D400030380A2801D20120704700207047014610
:103D500000BF70472DE9FE4F06460F460025684616
:103D600001F036FE002442E056F8240057F82410F3
:103D7000A0EB010ABAF1000F01DB514601E0CAF1E4
:103D80000001084604F0D8FC83464FF08F4104F050
:103D9000A1FB80465DF82400002104F05DFC16D0F4
:103DA0005DF82410404604F095FB82464FF07E51AA
:103DB00004F02AFE814629F0004A0F48416A504625
:103DC00004F0E6FD12D20120A04005430EE00A48AF
:103DD000C169404604F0DCFC05D30748016A40464F
:103DE00004F0D6FD02D20120A0400543641C032C40
:103DF000BADB2846BDE8FE8F108C000800B587B0FE
:103E000001210420FEF722FC01214802FEF71EFCDE
:103E10001020ADF8180000208DF81B0006A91C48E2
:103E2000FEF722F84FF40040FEF7E4FB1948FDF7D7
:103E300045FE002001908DF808008DF809004FF430
:103E4000602003900020049001208DF8140001A947
:103E50001048FDF783FE01210E48FDF723FE0D48B3
:103E6000FDF700FF00BF0B48FDF76DFE0028FAD1FB
:103E70000848FDF707FF00BF0648FDF74DFE002884
:103E8000FAD101210348FDF7F2FE07B000BD0000A2
:103E900000080140002401402DE9F04D8D4F21F034
:103EA000004A86B005460C46BA452ADBAAEB070055
:103EB00028430AD08848824501DC1AD1CDB106B02A
:103EC0002846BDE8F04DFFF728BF844A844B2846BA
:103ED00003F08CFF07460E46824A834B2846214654
:103EE00003F084FF06B03A463346BDE8F04D03F0D8
:103EF000EDBC0120FCF730FC06B0BDE8F04DFFF74B
:103F000011BF7A48824542DABAF1795F0BDA284666
:103F1000FFF79AFE042808BFFFF70AFF284606B0FD
:103F20002146BDE8F08D2A460B46104603F05EFFA1
:103F3000834602466E480E460B4606217844FFF73C
:103F400097FE5A46334603F051FF804669488A4639
:103F50005A46334604217844FFF78AFE5A463346D0
:103F600003F044FF00223B4603F0B0FC02460B4640
:103F70004046514603F05AFD2A46234603F036FFD9
:103F800006B02A462346BDE8F04D03F09FBC284604
:103F900024F0004100223D463B4604F025F84FF056
:103FA000FF3204F0DAFD0646024653480F460B4640
:103FB00006217844FFF75CFE32463B4603F016FFCD
:103FC000CDE900014D4832463B4604217844FFF7D5
:103FD0004FFE32463B4603F009FF00222B4603F01A
:103FE00075FC834602913046394603F08FFB8046CC
:103FF00043480D46504517DCDDE900015A46029B57
:1040000003F014FD42462B4603F0F0FE42462B46D9
:1040100003F05CFC012204F0A0FD304A304B04F0B8
:10402000D5F8304A304B4CE04FF0000A52460B4670
:10403000404603F04BFCCDE9031052462B46104698
:10404000194603F0D3FE32463B4603F0CDFFDDE9CF
:10405000033203F0EBFC06460F46DDE900015A4649
:10406000029B03F0E3FC834600910122304639466F
:1040700004F073FD194A1A4B03F0B6FF06460F46CB
:1040800001224046294604F068FD5A46009B03F091
:10409000ADFE32463B4604F099F806460F46012233
:1040A0005046294604F059FD0E4DDFF858802A4647
:1040B000434603F099FF32463B4603F095FF2A46FC
:1040C000434603F091FF002CD8BF81F0004106B0B9
:1040D000BDE8F08D0000F03F0000F07F075C143376
:1040E00026A6913C182D4454FB21F93F0000E03FE7
:1040F000285900003E590000B2580000C85800007E
:104100003333EF3FFB21E93F2DE9F84F04460D46DD
:1041100021F0004000917349814211DC72498842CC
:1041200001DC06D12CB120462946BDE8F84FFFF747
:10413000F4BD6E48002DCCBF6D496E49BDE8F88FC7
:104140006D49814211DD6D498142D8BF4FF0FF3684
:104150006DDD20462946FFF777FD042808BFFFF7ED
:10416000E7FD20462946BDE8F88F6549654F25F0F3
:104170000045814233DD6449814219DD0026324623
:104180004FF080432046294603F0A0FB80468A4634
:1041900001222046294604F0E0FC00223B4604F0C0
:1041A00015F84246534603F041FC04460D463EE0F6
:1041B00001260022BA463B462046294603F086FBEC
:1041C00080460F46002253462046294603F0FEFF54
:1041D00042463B4603F02AFC04460D4627E04B4985
:1041E00081421BDDDFF828A102260022534620462B
:1041F000294603F0FBFD00223B4603F067FB8046A7
:104200000F46002253462046294603F0DFFF424670
:104210003B4603F00BFC04460D4608E0032622460D
:104220002B4600203B4903F001FC04460D46224684
:104230002B461046194603F0D9FD8B4682460246AE
:104240000B4603F0D3FD07460246334888460B462B
:1042500006217844FFF70CFD52465B4603F0C6FD8D
:1042600082462E488B463A46434605217844FFF75E
:10427000FFFC3A46434603F0B9FD02460B46002ECA
:10428000504659460CDA03F021FB22462B4603F038
:10429000ADFD01B022462B46BDE8F04F03F0A4BEB1
:1042A00003F014FB22462B4603F0A0FD1C4A7A447F
:1042B00002EBC603D3E9002303F088FF22462B4616
:1042C00003F084FF174A7A4402EBC603D3E90023C4
:1042D00003F08AFE009A002AB8BF81F00041BDE8D1
:1042E000F88F0000000010440000F07F182D4454A7
:1042F000FB21F93FFB21F9BF0000DC3F0000203E1D
:104300000000F33F0000F03F0000E63F0080034064
:104310000000F83F0000F0BFD256000090560000A9
:104320002E560000F65500002DE9F04D9446CCF1D4
:10433000000423F000464CEA0404524F46EAD474C9
:104340009A46884621F00042BC4206D8454240EADF
:10435000050442EAD474BC4204D9BDE8F04D62467B
:10436000FFF7DEBCAAF14055A5F17F6555EA0C04C4
:104370000BD0022404EAAA74434DDFF810E144EAAA
:10438000D87452EA000B04D00CE0BDE8F04DFFF702
:10439000BBBE002C14BF012CBDE8F08D022C30D028
:1043A000032C32D056EA0C0B0AD0BE4220D1BA42BE
:1043B00009D126F0804622F080423346114617E0AC
:1043C00000291ADB25E0DFF8C8B0FB44002C04BF4D
:1043D000DBE90001BDE8F08D012C02BFDBE9000143
:1043E00081F00041BDE8F08D022C0AD0032C0CD0E6
:1043F000BA4212D1B8F1000F0BDA23482549BDE8C3
:10440000F08D28462449BDE8F08D28467146BDE868
:10441000F08D1D482149BDE8F08D921B12153C2AF4
:10442000C4BF19481D490EDCBAF1000FBEBF12F11E
:104430003C0F0020014606DB624603F0F7FA21F04C
:104440000041FFF761FE002C08BFBDE8F08D012C94
:1044500004BF81F00041BDE8F08D114A114B022CE0
:1044600007D003F0B3FE2A46BDE8F04D0A4B03F037
:10447000ADBE03F0ABFE2A46BDE8F04D064B03F09F
:10448000B3BD00000000F07F182D4454FB2109C08B
:104490008A550000FB21F9BFFB210940FB21F93FB0
:1044A000075C143326A6A13C2DE9F8430420FEF74F
:1044B00057F94042FD490860FD4AFE49FE4801F0B7
:1044C000E9FE0021FB48006804F062FA02D80120EE
:1044D000FA4908600021F748006804F059F902D24F
:1044E0000020F6490860F649B1F9000004F024F90B
:1044F00004462246EF480168F2480068FFF700FBD7
:10450000F1490860E9480068FFF786FAEF4908605A
:10451000ED480068096808440090ED49E5480068E6
:1045200004F036F905D3EB49E248006804F030FAAC
:1045300010D20021DD480068FFF71EFA00906FF0EE
:104540000100E54908600020E4490860E44908806A
:10455000091F08806846FDF753FD0098FDF766FDCA
:10456000E0480078401CDF490870DF480068401CC4
:10457000DD490860D8480068401CD7490860DB481E
:104580000068401CD9490860D6480078052878D1D1
:104590000020D4490870D6480078792803D0D44840
:1045A0000078622802D16420D2490870D04800788F
:1045B000622803D0CF480078072802D10120CE49D5
:1045C0000870CB480078792803D0CA4800780628BC
:1045D00005D10020C84908703020C5490870C64878
:1045E000007800287AD1C5490870C5490870C549C6
:1045F0000870C5490870C5490870BD480078302862
:1046000001D1012000E00020BA49097809B901214F
:1046100000E00021084308B101F0ECFDB448007847
:10462000312801D1012000E00020B2490978012998
:1046300000D100E00021084308B101F0E7FDAC48DB
:104640000078322801D1012000E00020A949097832
:10465000022901D1012100E00021084308B101F045
:10466000BDFDA3480078412805D141F61F419C4873
:104670003838FEF718FF9E480078422802D1012002
:1046800001E07DE100209B490978082901D1012141
:1046900000E00021084328B14FF47A61904838388F
:1046A000FEF701FF92480078432801D1012000E085
:1046B000002090490978092901D1012100E0002159
:1046C000084328B140F6C41185483838FEF7EBFEA0
:1046D00087480078442802D1012001E0CDE0002085
:1046E000844909780A2901D1012100E00021084309
:1046F00028B14FF47A717A483838FEF7D4FE7C48F6
:104700000078452801D1012000E00020794909788E
:104710000B2901D1012100E00021084320B1012132
:104720006F483838FEF7BFFE71480078462802D13E
:10473000242002F047FF6E480078472802D12A2043
:1047400002F040FF6A480078482802D1302002F089
:1047500039FF67480078492802D1362002F032FF3D
:10476000634800784A2801D1012000E00020614917
:104770000978042901D1012100E00021084310B18A
:104780003B2002F01FFF5A4800784B2802D14020FE
:1047900002F018FF564800784C2802D1462002F05B
:1047A00011FF534800784D2802D14B2002F00AFF38
:1047B0004F4800784E2802D1502002F003FF4C48A9
:1047C00000784F2801D1012000E0002049490978F4
:1047D000032901D1012100E00021084310B1562036
:1047E00002F0F0FE42480078502802D15C2002F02E
:1047F000E9FE3F480078512802D1612002F0E2FE34
:104800003B480078522802D1662002F0DBFE38488F
:104810000078532802D16C2002F0D4FE344800788E
:10482000542801D1012000E00020324909780529EF
:1048300001D1012100E00021084310B1712002F0F4
:10484000C1FE2B480078552802D1762002F0BAFE2E
:1048500027480078562802D17C2002F0B3FE244875
:104860000078572802D1822002F0ACFE2048007860
:10487000582802D1882002F0A5FE1F4800780128A0
:104880007ED140F6C41116483838FEF70CFE204998
:104890002048006804F07CF847D218480078D8BB5C
:1048A00000200649091D0860012036E0AC00002008
:1048B0008C0000208800002084000020B4012242E7
:1048C0003C000020C0000020D8000020DC000020B8
:1048D000000070C100007041A4000020940121423A
:1048E000380400409C000020A0000020A800002008
:1048F0002F0000202E000020B0000020B10000207A
:10490000B2000020B3000020B4000020B500002059
:104910000000C8419400002007E0ED49C1F8BC0147
:10492000C01EEC49086002F0BFFDEB49EB4800688F
:1049300003F02EFF01D8012000E00020E8490978AB
:1049400009B9012100E00021084068B10020E549D3
:104950000860DF49C1F8BC01801EDE49086002F032
:1049600093FD0120DE490870DD480078012807D159
:10497000DD480078401CDC4908700846007800E0FB
:104980009FE00A2802DAA52002F04AFED648007805
:104990000A2806D1D1480068D4490860002002F0F6
:1049A0003FFED14800780A2807DBD1480078401C38
:1049B000CF4908700B20CC490870CD4800780A28F0
:1049C00006D1C6480068CB490860512002F028FE95
:1049D000C74800780A2807DBC7480078401CC6494A
:1049E00008700B20C2490870C3480078052839D1E7
:1049F000C0480168BD48006803F0CAFF08D8BF4935
:104A0000BA48006803F0C4FF02D22F2002F0DAFD9A
:104A1000B8480168B548006803F0BAFE08D2B74943
:104A2000B448006803F0B4FF02D27E2002F0CAFD51
:104A3000B249AE48006803F0ABFE13D8AF49AD48A9
:104A4000006803F0A5FE0DD801F0D4FB562002F05B
:104A5000B9FD6FF001009F49086002F035FD0020AC
:104A6000A5490870A4480078052807DBA448007809
:104A7000401CA349087006209F4908709E48007892
:104A800005280ADB9E480078232806DA002095498D
:104A9000086001208E49C1F8BC019948007823289C
:104AA0000FD101F0A7FB562002F08CFD00208C49AD
:104AB00008708D4908708E4908708F4908709049B8
:104AC000087090480078642836D08F4800686428C1
:104AD0000FD100208C4908608C48006803F060FC0E
:104AE000044622460B468AA002F0FAFC8CA002F093
:104AF000F7FC8C48006832281ED1002089490860E4
:104B0000FFF792F88848006803F04AFC0446224602
:104B10000B4686A002F0E4FC81A002F0E1FC6F48A5
:104B2000006803F03DFC044622460B4683A002F0D9
:104B3000D7FC7BA002F0D4FC72480078642849D1ED
:104B40007149086800EBD0714910A0EB410181B9AF
:104B50007548006803F024FC054600227B4B03F0F7
:104B600045F9074603F0BAF80446214678A002F05A
:104B7000B7FC65480068032810D16448006803F05A
:104B80000FFC05460022714B03F030F9074603F095
:104B9000A5F8044621466FA002F0A2FC5A4800681E
:104BA000052810D14D48006803F0FAFB05460022A5
:104BB000694B03F01BF9074603F090F804462146C1
:104BC00066A002F08DFC504800680A2802D100203F
:104BD0004D4908603F480068002876DB3D48006882
:104BE000C82872DC3B48006832280FDC01205C4991
:104BF0000860384800888C2148435A490880354865
:104C000000888C2148435749091F088031480068B3
:104C100032281ADD2F480068642816DA002050492F
:104C200008602C480068323841F61F418C2202FB94
:104C300010104C49088027480068323841F61F415F
:104C400002FB10104749091F0880224800686428A9
:104C500015DB20480068962811DA012040490860D9
:104C60001C48008864388C2148433E490880194814
:104C7000008864388C2148433A49091F0880154848
:104C8000006896281ADD13480068C82816DA002044
:104C9000334908600F480068963841F61F418C225E
:104CA00002FB10102F4908800A480068963841F628
:104CB0001F4102FB10102B49091F0880054800689E
:104CC000C82802D1002003490860BDE8F88300002D
:104CD00000002242A40000200000C84194000020EF
:104CE000B1000020B8012242B2000020B80000202C
:104CF000B3000020BC000020B40000200000F04100
:104D0000B50000202E000020A00000209000002010
:104D10007431362E7478743D22252E3166220000BF
:104D2000FFFFFF00A8000020880000207431372E0C
:104D30007478743D22252E31662200007431382E9D
:104D40007478743D22252E316622000000005940FF
:104D50007225640076256400000024406425640008
:104D600094012142380400402DE9F0410446E078E6
:104D700000F0C006E07800F03F05607800F0010028
:104D800098B1EF102846E91705EB5171C910A5EB52
:104D9000C101491C01F0FF080B48006820B10A4816
:104DA000414602683846904700BF607800F008002E
:104DB00030B10548406818B1B011034A51688847BE
:104DC0000020BDE8F0810000C001002010B50446BD
:104DD00003E04FF47A7000F005F8201EA4F10104FE
:104DE000F7D110BD014605E0002001E0421CD0B221
:104DF0000A28FBDB0A1EA1F10101F5D1704738B585
:104E0000044664B120208DF8000028208DF80100B0
:104E100030208DF8020038208DF8030004E0A32232
:104E200004216846FBF710FC6A46042140F69E20E8
:104E300002F0EAFA01F0D4FE38BD00003EB50446A7
:104E400002208DF80000CA208DF80100E3208DF8C3
:104E5000020009208DF803006A460421682002F050
:104E6000D3FAA3208DF8000004F0400048B1C02020
:104E70008DF80100C8208DF80200C2208DF80300D3
:104E800006E0A3208DF801008DF802008DF80300E4
:104E900004F4C07048B1C4208DF80400CC208DF813
:104EA0000500C6208DF8060006E0A3208DF804005A
:104EB0008DF805008DF80600A3208DF807008DF809
:104EC00008008DF809006A460A2140F6A72002F082
:104ED0009BFA04F0030018B120208DF8000002E0D6
:104EE000D8208DF800006A46012140F6B62002F075
:104EF0008BFA04F0200018B1012000F0ADF802E0B8
:104F0000002000F0A9F804F4C07008B304F4807025
:104F100060B1B2208DF800008B208DF80100B62022
:104F20008DF802009B208DF803000BE0B0208DF877
:104F3000000080208DF80100B4208DF80200902040
:104F40008DF803006A46042140F6A22002F05CFAC4
:104F500004F0010020B3F8208DF800006A4601211A
:104F60004FF40B6002F050FAFA21072000F02CFCFD
:104F7000072000F0F3FB012000F013FC642000F098
:104F8000F3FC4FF4FA7000F002FDC821304800F045
:104F9000A3FB282000F0BCFB0A2000F0CCFB08E0BB
:104FA000D8208DF800006A4601214FF40B6002F012
:104FB0002BFA04F0020018B1D9208DF8000002E0AD
:104FC000D8208DF800006A46012140F23D7002F0C1
:104FD0001BFA04F0040018B1012000F069F802E0A7
:104FE000002000F065F804F0100018B10120FFF770
:104FF00006FF02E00020FFF702FF44F00800154919
:10500000488101F0EDFD00201249887304F0400052
:1050100018B10846807B801D887304F4C07020B1ED
:105020000C48807B801D0B49887304F0140020B16C
:105030000848807B10300749887304F0030020B1D2
:105040000448807B001D0349887300203EBD00009A
:1050500009E3CA02C00100203EB504466CB10EA1AE
:10506000D1E900208968CDE9002002916A46092132
:105070004FF4976002F0C8F93EBD0AA2D2E90010D1
:105080009268CDE9010200916A4609214FF49760C8
:1050900002F0BAF9F0E70000B8AAB38DB4980D3564
:1050A0005D000000B8AAAAAAB088C3C5C700000066
:1050B00038B5044664B1C0208DF80000C2208DF8D8
:1050C0000100C4208DF80200C6208DF8030004E022
:1050D0008B2204216846FBF7B7FA6A46042140F6A2
:1050E000982002F091F901F07BFD38BD10B5C8237E
:1050F0004FF48062024940F6F63001F005FC10BD25
:10510000388C00082DE9F04F8DB0074688461546CB
:105110009946DDE9166B0024002030806B49887BBE
:105120005A4605A901F0BCFC18B1601E0DB0BDE8DF
:10513000F08F6648807A00F01400002867D09DF850
:10514000140000069DF8151040EA01409DF8161065
:1051500040EA01209DF81710084328609DF81800C8
:1051600000069DF8191040EA01409DF81A1040EA27
:1051700001209DF81B10084368609DF81C00000684
:105180009DF81D1040EA01409DF81E1040EA0120E4
:105190009DF81F100843A8609DF8200000069DF8A8
:1051A000211040EA01409DF8221040EA01209DF8BC
:1051B00023100843E86004F11000C4B2286800140A
:1051C0000190686800140290A86800140390E868D1
:1051D0000014049001984043029901FB01000399D7
:1051E00001FB0100049901FB010ABAF1706F02DBB7
:1051F000BAF1885F05DD01F0F3FC00203080401E2D
:1052000094E7B6F9000040F48070308000BF2F486A
:10521000807A00F0400020B305A9601C085C095D9D
:1052200040EA012000B2A8F8000005A9E01C095CD2
:1052300005AAA01C105C41EA002000B2A8F80200F8
:1052400005A9601D095C201D105C41EA002000B228
:10525000A8F80400A01DC4B2B6F9000040F0080090
:1052600030801A48408900F4C07008B305A9601C5A
:10527000085C095D40EA012000B2388005A9E01C05
:10528000095C05AAA01C105C41EA002000B27880ED
:1052900005A9601D095C201D105C41EA002000B2D8
:1052A000B880A01DC4B2B6F9000040F07000308094
:1052B0000648807A00F0030018B105A90819FFF725
:1052C00053FD484600F04EFF00202FE7C0010020AC
:1052D00070B588B0064601A801F06AF9BDF804006F
:1052E0000021C90341EA5045C4034448007A00F054
:1052F000030056F8200005904048007A00F00400B2
:1053000010B10598404205903C48007AC0F3C100B6
:1053100056F8200006903948007A00F0200010B1BD
:105320000698404206903548007AC0F3811056F83E
:10533000200007903148008900F4807010B1079870
:10534000404207900598C117A0FB042301FB0431DC
:1053500000FB0510810041EA927005900698C11784
:10536000A0FB042301FB043100FB0510810041EA8E
:10537000927006900798C117A0FB042301FB04312B
:1053800000FB0510810041EA927007900598000E1D
:105390008DF808000598000C8DF809000598000AA2
:1053A0008DF80A000598C0B28DF80B000698000E23
:1053B0008DF80C000698000C8DF80D000698000A78
:1053C0008DF80E000698C0B28DF80F000798000EF9
:1053D0008DF810000798000C8DF811000798000A4E
:1053E0008DF812000798C0B28DF8130002AA0C21A4
:1053F0004FF4257002F008F808B070BDC00100201D
:1054000030B585B0044616A207CA02AB07C3C82C44
:1054100003DD4FF0FF3005B030BDC82090FBF4F045
:10542000401E85B2280A8DF80000E8B28DF8010010
:105430006A46022140F2162001F0E6FF10B14FF05B
:10544000FF30E8E702AA0C2140F6C12001F0DCFFA2
:1054500010B14FF0FF30DEE7044884810020DAE726
:10546000FEF2ABC4AAF1DFDFBBAFDFDFC00100207B
:105470001FB504464848007A00F0030054F82000A5
:1054800001904548007A00F0040010B101984042B4
:1054900001904148007AC0F3C10054F82000029006
:1054A0003D48007A00F0200010B10298404202907E
:1054B0003948007AC0F3811054F820000390364830
:1054C000008900F4807010B1039840420390334982
:1054D000019880FB0101800F40EA810001902F4973
:1054E000029880FB0110820042EA917002902B49E1
:1054F000039880FB0110820042EA917003900198AA
:10550000000E8DF800000198000C8DF80100019844
:10551000000A8DF802000198C0B28DF803006A46B7
:1055200004214FF4747001F06FFF18B14FF0FF3099
:1055300004B010BD0298000E8DF800000298000C17
:105540008DF801000298000A8DF802000298C0B29E
:105550008DF803006A4604214FF4757001F054FF82
:1055600010B14FF0FF30E3E70398000E8DF8000014
:105570000398000C8DF801000398000A8DF80200D2
:105580000398C0B28DF803006A4604214FF4767088
:1055900001F03AFFCCE70000C001002009E3CA0295
:1055A00010B586B0044647A00068039046A0006886
:1055B000029046A00068019045A00068009004F0A9
:1055C000030003A9085C8DF8140003A8C4F3C1010B
:1055D000405C8DF8150003A8C4F38111405C8DF880
:1055E000160004F0030002A9085C8DF8100002A860
:1055F000C4F3C101405C8DF8110002A8C4F381110D
:10560000405C8DF8120005AA032140F2264001F00B
:10561000FBFE18B14FF0FF3006B010BD04AA032105
:1056200040F22A4001F0F0FE10B14FF0FF30F3E7F6
:10563000019805900098049004F0040058B19DF87A
:10564000140040F001008DF814009DF8100040F0A7
:1056500001008DF8100004F0200058B19DF81500ED
:1056600040F001008DF815009DF8110040F0010098
:105670008DF8110004F4807058B19DF8160040F0C8
:1056800001008DF816009DF8120040F001008DF821
:10569000120005AA03214FF4886001F0B5FE10B195
:1056A0004FF0FF30B8E704AA032140F2314001F087
:1056B000ABFE10B14FF0FF30AEE70648048100208A
:1056C000AAE700004CCD6C000CC92C0036567600C1
:1056D00026466600C0010020F8B505460E464FF488
:1056E0007A7095FBF0F000FB06F4200E8DF80000B8
:1056F000200C8DF80100200A8DF80200E0B28DF830
:1057000003006A4604214FF4AE7001F07DFEF8BD3F
:1057100038B50446052094FBF0F084B220128DF8D1
:105720000000E0B28DF801006A4602214FF4AD702E
:1057300001F06AFE38BD38B50446052094FBF0F050
:1057400084B220128DF80000E0B28DF801006A46A4
:1057500002214FF4AC7001F057FE38BD38B5044655
:105760000020009004F0010020B19DF8000040F0FE
:105770003000009004F0020020B19DF8000040F0DD
:105780000C00009004F0040020B19DF8000040F0EF
:10579000030000906A4601214FF4A47001F034FE2A
:1057A00038BD38B50446012C01DA012402E0042C8E
:1057B00000DD0424601EC0B200906A46012140F260
:1057C0004F1001F021FE38BD2DE9FC4706460F467B
:1057D00006F0070010B1B7F5C86F03DD4FF0FF30DA
:1057E000BDE8FC87384602F0BFFF8146594902F008
:1057F00071FE8046684600F0B5FE9DF80000022864
:1058000006D0042816D0082826D0102848D135E024
:105810004FF08D41404602F0EFFF814602F06CFFF1
:1058200084B24D49404602F0E7FF814602F064FF32
:1058300085B238E04FF08C41404602F0DDFF8146F2
:1058400002F05AFF84B24549404602F0D5FF814636
:1058500002F052FF85B226E04FF08B41404602F045
:10586000CBFF814602F048FF84B23D49404602F03A
:10587000C3FF814602F040FF85B214E04FF08A4139
:10588000404602F0B9FF814602F036FF84B2354946
:10589000404602F0B1FF814602F02EFF85B202E0E1
:1058A0004FF0FF309CE700BF20128DF80400E0B2FB
:1058B0008DF8050028128DF80600E8B28DF8070073
:1058C00006F00100A0B101AA02214FF4EA7001F034
:1058D0009BFD10B14FF0FF3082E70DF1060202216F
:1058E0004FF4927001F090FD10B14FF0FF3077E768
:1058F00006F00200A0B101AA02214FF4EC7001F001
:1059000083FD10B14FF0FF306AE70DF1060202216E
:105910004FF4947001F078FD10B14FF0FF305FE765
:1059200006F00400A0B101AA02214FF4EE7001F0CC
:105930006BFD10B14FF0FF3052E70DF1060202216E
:105940004FF4967001F060FD10B14FF0FF3047E763
:10595000002045E700004843000040460000C045E5
:10596000000040450000C04438B50446052094FBC3
:10597000F0F085B228128DF80000E8B28DF8010031
:105980006A4602214FF4EF7001F03EFD38BD38B594
:105990000446052094FBF0F085B228128DF8000033
:1059A000E8B28DF801006A4602214FF4ED7001F073
:1059B0002BFD38BD00BF054A128802F04002002AC4
:1059C000F9D0C2B2014B1B1D1A807047003801404C
:1059D0007CB5054628494968087801AB04220D21A9
:1059E000FCF7EAFC08B107207CBD9DF80700C0F376
:1059F00001109DF8041001F0E00140EAE1008DF88B
:105A000000009DF80700C0F381009DF8051001F02B
:105A1000E00140EAE1008DF801009DF8070000F088
:105A200003009DF8061001F0E00140EAE1008DF866
:105A3000020000241CE01DF8040018B9002045F8FD
:105A4000240013E00D4845F8240006E055F8240032
:105A50000B4902F0D1FE45F824001DF80400401E59
:105A6000C0B20DF804000028F0D100BF601CC4B221
:105A7000032CE0DB0020B7E74C0000207B14AE3E97
:105A80001D5A843F2DE9F04F87B005460C469146DC
:105A900001208DF8100000208DF81100FE4A1268D8
:105AA000917CFD4A5268107804AB0222FCF72AFD73
:105AB00020B14FF0FF3007B0BDE8F08FC820FFF7EE
:105AC00085F900208DF81000F34A1268D17BF24A64
:105AD0005268107804AB0122FCF714FD10B14FF0AE
